:020000040800F2
:100000007804002001010008090100080B01000824
:100010000D0100080F010008110100080000000098
:1000200000000000000000000000000013010008B4
:100030001501000800000000170100081901000860
:100040001B0100081B0100081B0100081B01000820
:100050001B0100081B0100081B0100081B01000810
:100060001B0100081B0100081B0100081B01000800
:100070001B0100081B0100081B0100081B010008F0
:100080001B0100081B0100081B0100081B010008E0
:100090001B0100081B0100081B0100081B010008D0
:1000A0001B0100081B0100081B0100081B010008C0
:1000B000D50800081B0100081B0100081B010008EF
:1000C0001B0100081B0100081B0100081B010008A0
:1000D0001B0100081B0100082D0C0008C10C0008C2
:1000E0001B0100081B0100081B010008DFF80CD0F1
:1000F00000F018F800480047391200087804002082
:100100000648804706480047FEE7FEE7FEE7FEE7B1
:10011000FEE7FEE7FEE7FEE7FEE7FEE775080008FC
:10012000ED000008064C074D06E0E06840F00103D2
:1001300094E8070098471034AC42F6D3FFF7DAFF93
:10014000DC120008FC12000870B5044600F0DAF872
:100150000546284600F0F2FA142D11D200F05AF9A3
:1001600021464FF4167000F005FA4FF4FA7001F0D2
:1001700017F800F067F92146204600F0FBF905E08A
:1001800000F060F92146204600F0F4F970BD00004F
:1001900008B50121042000F057FA4FF48050ADF863
:1001A000000028208DF8030003208DF80200694626
:1001B000074800F00FF84FF40060ADF80000102081
:1001C0008DF803006946024800F004F808BD0000FD
:1001D000000801402DE9F0410246002500260020DC
:1001E00000230024002791F803C00CF00F0591F8BC
:1001F00003C00CF0100CBCF1000F03D091F802C04A
:100200004CEA050591F800C0BCF1000F31D014682C
:1002100000202BE04FF0010C0CFA00F3B1F800C005
:100220000CEA03069E4220D183004FF00F0C0CFA1B
:1002300003F7BC4305FA03FC4CEA040491F803C03D
:10024000BCF1280F06D14FF0010C0CFA00FCC2F8EB
:1002500014C00AE091F803C0BCF1480F05D14FF07B
:10026000010C0CFA00FCC2F810C0401C0828D1D3C5
:100270001460B1F800C0BCF1FF0F34DD54680020F9
:100280002EE000F1080C4FF0010808FA0CF3B1F869
:1002900000C00CEA03069E4221D183004FF00F0CF0
:1002A0000CFA03F7BC4305FA03FC4CEA040491F88A
:1002B00003C0BCF1280F05D100F1080C08FA0CF8B6
:1002C000C2F8148091F803C0BCF1480F07D100F1C7
:1002D000080C4FF0010808FA0CF8C2F81080401C16
:1002E0000828CED35460BDE8F08102460020936810
:1002F0000B400BB1012000E00020704741617047C6
:100300000161704770B500254FF400611348FFF795
:10031000F7FF0F2000F06AFF4FF400610F48FFF76E
:10032000EDFF00BF4FF480510C48FFF7DEFF0028BF
:10033000F8D004E0082000F059FF681C85B24FF4A3
:1003400080510648FFF7D1FF0028F3D105EB4500A7
:10035000142190FBF1F4204670BD0000000801401C
:1003600070B504460025012C04D0022C08D0032CC3
:1003700012D10BE010210A48FFF7B7FF05460BE04A
:1003800020210748FFF7B1FF054605E00221054897
:10039000FFF7ABFF054600BF00BF284670BD000059
:1003A00000080140000C014070B505460C46222DA6
:1003B00017D003DC75B1112D28D104E0332D17D0EF
:1003C000442D23D11BE000F03DF82146204600F0EB
:1003D000D1F81CE000F036F80021084600F0CAF819
:1003E00015E000F0AFF82146204600F0C3F80EE01B
:1003F00000F090F82146204600F0BCF807E000F03D
:1004000009F82146204600F0B5F800E000BF00BF23
:1004100070BD000010B54FF400510948FFF76EFFA2
:100420004FF480510648FFF76BFF4FF4004104483A
:10043000FFF764FF4FF480410148FFF761FF10BDF3
:10044000000C014010B54FF480510948FFF756FFEA
:100450004FF400510648FFF753FF4FF48041044822
:10046000FFF74CFF4FF400410148FFF749FF10BD73
:10047000000C014000B589B00121082000F0E4F82B
:100480000121042000F0D0F810208DF823004FF453
:100490007040ADF8200001208DF8220008A91B480B
:1004A000FFF798FE18208DF823004001ADF82000DA
:1004B00001208DF8220008A91448FFF78BFE0020C8
:1004C000ADF8160040F2E730ADF818000620ADF8A0
:1004D000140005A90E4800F0BDFA6020ADF8040034
:1004E0000020ADF80C00ADF80A000120ADF80600C0
:1004F00001A9074800F01AFA01A9054800F066FAB8
:100500000121034800F0F5F909B000BD000C0140DD
:100510000008004010B54FF480510948FFF7EEFE87
:100520004FF400510648FFF7EBFE4FF4004104483A
:10053000FFF7E4FE4FF480410148FFF7E1FE10BDF4
:10054000000C014010B54FF400510948FFF7D6FEEA
:100550004FF480510648FFF7D3FE4FF48041044822
:10056000FFF7CCFE4FF400410148FFF7C9FE10BD74
:10057000000C014070B504460D46B4F57A7F01DBEE
:1005800040F2E734B5F57A7F01DB40F2E735A9B2F6
:10059000034800F059FAA1B2014800F057FA70BDC3
:1005A0000008004070B5002100230F22C47804B376
:1005B000154C246804F4E064C4F5E064210AC1F138
:1005C0000403CA40447804FA03F1847814402143B8
:1005D00009010E4C0678A155047804F01F0501248A
:1005E000AC4005786D11AD0005F1E025C5F800417E
:1005F00009E0047804F01F050124AC40044D06789E
:10060000761145F8264070BD0CED00E000E400E0F6
:1006100080E100E002490143024A11607047000096
:100620000000FA050CED00E029B1064AD269024348
:10063000044BDA6104E0034AD2698243014BDA6178
:10064000704700000010024029B1064A9269024337
:10065000044B9A6104E0034A92698243014B9A6118
:10066000704700000010024030B500210022002435
:1006700000232D4D6D6805F00C0121B1042905D032
:10068000082923D105E0294D056022E0274D0560AA
:100690001FE0254D6D6805F47012234D6D6805F45B
:1006A0008034022505EB92421CB9214D554305606B
:1006B0000BE01D4D6D6805F400351DB11C4D554313
:1006C000056002E0194D5543056002E0174D0560D5
:1006D00000BF00BF144D6D6805F0F0010909154D0C
:1006E0006B5C0568DD4045600F4D6D6805F4E061A9
:1006F000090A104D6B5C4568DD4085600A4D6D68E8
:1007000005F46051C90A0B4D6B5C4568DD40C5605E
:10071000054D6D6805F44041890B074D6B5CC5685C
:10072000B5FBF3F5056130BD0010024000127A0000
:1007300000093D00240000203400002070B504466C
:100740000CE00A20B4FBF0F100FB114000F1300591
:10075000284600F095FC0A20B4FBF0F4002CF0D100
:1007600070BD10B500F002F810BD00000CB50020FF
:10077000019000903348006840F4803031490860AF
:1007800000BF3048006800F4003000900198401C21
:100790000190009818B90198B0F5A06FF1D12948DF
:1007A000006800F4003010B10120009001E000204A
:1007B00000900098012843D12348006840F01000C1
:1007C000214908600846006820F0030008600846D8
:1007D000006840F0020008601A4840681949486003
:1007E0000846406848600846406840F480604860B9
:1007F0000846406820F47C1048600846406840F491
:10080000E81048600846006840F08070086000BF4B
:100810000C48006800F000700028F9D009484068D2
:1008200020F00300074948600846406840F0020095
:10083000486000BF0348406800F00C000828F9D168
:100840000CBD00000010024000200240042808D126
:100850004FF0E021096941F004014FF0E0221161FD
:1008600007E04FF0E021096921F004014FF0E02298
:100870001161704710B51348006840F0010011493C
:10088000086008464068104908400E49486008461C
:1008900000680E4908400B4908600846006820F4CB
:1008A000802008600846406820F4FE0048604FF44D
:1008B0001F008860FFF755FF4FF000600449086093
:1008C00010BD0000001002400000FFF8FFFFF6FE20
:1008D00008ED00E010B50121880700F016F80128A6
:1008E00003D10121800700F001F810BDCA43028244
:1008F000704721B1028842F00102028004E00288C0
:100900004FF6FE731A400280704730B50246002051
:1009100000230024158A05EA0103958905EA0104EC
:1009200013B10CB1012000E0002030BD70B50024EF
:1009300000220023058C4FF6FF6635400584028CAB
:100940008388848B4FF68F752C404FF6FC752C40B6
:100950000D882C434FF6FF552A400D894FF6FF7640
:1009600006EA05252A434D8806EA05252A43154D42
:10097000A84202D0144DA8421DD14FF2FF752A4063
:100980004D894FF6FF7606EA05252A434FF6FF35D7
:100990002A408D8806EA05252A434EF6FF752B402E
:1009A0004DF6FF752B408D8906EA05152B43CD8941
:1009B00006EA05152B4383808483CD8885870284CE
:1009C00070BD0000002C01400034014070B50022D1
:1009D00000230024058C4EF6FF7635400584038CF9
:1009E0008488828B48F6FF752A404FF6FF452A40DF
:1009F0000D884FF6FF7606EA05252A434DF6FF756A
:100A00002B400D8906EA05352B434D8806EA05354E
:100A10002B430B4DA84202D00A4DA84208D14BF6F9
:100A2000FF752C408D894FF6FF7606EA85152C431D
:100A300084808283CD88A0F84050038470BD00007C
:100A4000002C01400034014081877047A0F840101D
:100A500070470000002202881D4B98420ED01D4BAB
:100A600098420BD0B0F1804F08D01B4B984205D074
:100A70001A4B984202D01A4B984204D14FF68F730A
:100A80001A404B881A43174B984207D0164B98428E
:100A900004D04FF6FF431A40CB881A4302808B885C
:100AA00083850B8803850A4B98420BD0094B9842EB
:100AB00008D00E4B984205D00D4B984202D00D4BFA
:100AC000984201D10B7A038601238382704700008C
:100AD000002C0140003401400004004000080040A8
:100AE000000C004000100040001400400040014095
:100AF00000440140004801401CB501210820FFF7D7
:100B0000A3FD48208DF807000220ADF80400012065
:100B10008DF8060001A90A48FFF75CFB01210420BB
:100B2000FFF792FD48208DF803003020ADF800005B
:100B300001208DF8020069460248FFF74BFB1CBDFF
:100B4000000C0140000801402DE9F041074601205A
:100B5000FFF706FC04460220FFF702FC05460320CF
:100B6000FFF7FEFB0646FFF76DFC2D48006870B9E5
:100B70002C48006858B14FF400512B48FFF7C0FBD8
:100B80000021112000F0BAF90020264908603CB984
:100B9000012D05D126B939463846FFF7EBFC35E083
:100BA000012C06D12DB926B900213846FFF7E2FC09
:100BB0002CE03CB935B9012E04D139460020FFF7AD
:100BC000D9FC23E044B9012D06D1012E04D13946C8
:100BD0000020FFF7CFFC19E034B92DB926B939460A
:100BE0003846FFF7C7FC11E0012C0FD1012D0DD1C4
:100BF000012E0BD10A2000F0D3FA09480068401CEE
:100C00000749086039463846FFF7B4FC04480068D5
:100C100020B103480168222000F070F9BDE8F0819E
:100C2000180000201C0000200010014010B540F208
:100C300025511E4800F09CF8012836D11C48006858
:100C400070BB1A4800F050F9C4B21A48006850B995
:100C5000AA2C08D118480470012016490860002009
:100C6000164908601BE013480068012817D1134893
:100C70000068052813DA11480068401C0F49086015
:100C80000D48096844540D480068052807D1BB2C5D
:100C900002D101200649086000200649086004E0EE
:100CA00040F22551014800F03BF810BD00440040DF
:100CB000000000200C000020040000201000002094
:100CC00010B5002440F22551064800F051F840B11B
:100CD000044800F009F9C4B2034804700120034934
:100CE000087010BD004800400B0000200A000020E2
:100CF00010B5044600BF8021084800F02CF80028F9
:100D0000F9D02146054800F0F4F800BF402103481F
:100D100000F021F80028F9D010BD00000048004084
:100D200010B50022002340F66A14A14200D100BF92
:100D30000A1201249440A3B2DC43048010BD21B107
:100D4000828942F40052828104E082894DF6FF7369
:100D50001A408281704702460020B1F5007F00D121
:100D600000BF13880B400BB1012000E0002070474A
:100D700070B50246002400230025002040F66A16C4
:100D8000B14200D100BFC1F3421501F01F0301269B
:100D900006FA03F3012D02D19689334006E0022DB5
:100DA00002D1168A334001E0968A33400C120126A4
:100DB00006FA04F41688344013B10CB1012000E0A7
:100DC000002070BDF0B50346002400260025002059
:100DD00040F66A17B94200D100BF1846C1F3421469
:100DE00001F01F06012707FA06F5012C01D10C308E
:100DF00004E0022C01D1103000E014301AB1076871
:100E00002F43076002E00768AF430760F0BD0000B2
:100E10002DE9F04786B005460E460024A24600BFE5
:100E2000A1460027B08900B100BF2F462C8A4CF69E
:100E3000FF700440F08804432C82AC894EF6F31016
:100E40000440B08831890843718908430443AC8168
:100E5000AC8A4FF6FF400440B0890443AC8201A83D
:100E6000FFF702FC1F48874202D1DDF810A001E025
:100E7000DDF80CA0A88900F4004040B10AEBCA00DC
:100E800000EB0A1031684900B0FBF1F807E00AEB0B
:100E9000CA0000EB0A1031688900B0FBF1F8642049
:100EA000B8FBF0F004012009642101FB1089A88936
:100EB00000F4004040B1322000EBC900B0FBF1F07B
:100EC00000F00700044308E0322000EB0910642121
:100ED000B0FBF1F000F00F0004432C8106B0BDE838
:100EE000F08700000038014001468888C0F3080000
:100EF0007047C1F3080282807047000070B5054654
:100F00000C46034805604460022000F003F870BD01
:100F10004C00002070B505460024B120FFF7E8FE24
:100F20001B20FFF7E5FE00BF05E0044911F824008F
:100F3000FFF7DEFE641CAC42F7DB70BD4C00002006
:100F400010B586B00446012144F20400FFF77CFB93
:100F500018208DF817004FF40070ADF81400012030
:100F60008DF8160005A91B48FFF734F904208DF809
:100F700017000002ADF8140005A91648FFF72AF97A
:100F800001940020ADF80800ADF80C00ADF80A009F
:100F9000ADF810000C20ADF80E0001A90E48FFF7C7
:100FA00037FF012240F225510B48FFF70BFF2520A8
:100FB0008DF8000001208DF803008DF801008DF8F8
:100FC00002006846FFF7EEFA01210348FFF7B7FE7B
:100FD00006B010BD000801400038014010B586B0D1
:100FE000044601210420FFF72FFB01214804FFF7ED
:100FF0001BFB18208DF817000420ADF81400012009
:101000008DF8160005A91C48FFF7E4F804208DF8B8
:1010100017000820ADF8140005A91748FFF7DAF803
:1010200001940020ADF80800ADF80C00ADF80A00FE
:10103000ADF810000C20ADF80E0001A90F48FFF725
:10104000E7FE012240F225510C48FFF7BBFE2620A7
:101050008DF8000001208DF8030000208DF80100BC
:1010600001208DF802006846FFF79CFA0121034831
:10107000FFF765FE06B010BD0008014000440040C7
:1010800010B5044621460548FFF733FF00BF802115
:101090000248FFF760FE0128F9D110BD004400406E
:1010A00010B586B0044601210820FFF7CDFA0121D2
:1010B0008804FFF7B9FA18208DF817004FF4806004
:1010C000ADF8140001208DF8160005A91C48FFF7A3
:1010D00081F804208DF817004002ADF8140005A92E
:1010E0001748FFF777F801940020ADF80800ADF835
:1010F0000C00ADF80A00ADF810000C20ADF80E00A1
:1011000001A91048FFF784FE012240F225510D4845
:10111000FFF758FE27208DF8000001208DF803000E
:1011200000208DF8010001208DF802006846FFF7CD
:1011300039FA01210348FFF702FE06B010BD000096
:10114000000C01400048004002E008C8121F08C11E
:10115000002AFAD170477047002001E001C1121F38
:10116000002AFBD17047000010B56FF00400FFF7B4
:101170006DFB074800680749B0FBF1F006490870AD
:10118000084600784FF47A7148430449088010BD3E
:101190003800002000127A00140000201600002001
:1011A0000146114A12884A434FF0E0235A61002257
:1011B0009A611A46126942F001021A6100BF4FF0AB
:1011C000E022106900F001021AB100F48032002A16
:1011D000F5D04FF0E022126922F001024FF0E02337
:1011E0001A6100229A617047160000200146114AD8
:1011F00012784A434FF0E0235A6100229A611A465E
:10120000126942F001021A6100BF4FF0E02210693A
:1012100000F001021AB100F48032002AF5D04FF03C
:10122000E022126922F001024FF0E0231A6100224D
:101230009A617047140000204FF4A060FFF7EAF9AC
:10124000FFF792FFFFF716F94FF41650FFF778FEFD
:101250004FF41650FFF7C2FE4FF41650FFF720FF71
:10126000FFF7F0F800210846FFF784F9FFF744FC88
:10127000FEF78EFF00240026002529E015480068AF
:10128000012810D114484478867800791249C97829
:1012900000EB012085B200200E490860222C02D10B
:1012A0002846FFF74BFA112C04D0222C07D0332C00
:1012B0000DD108E029463046FFF776F807E02846CA
:1012C000FFF742FC03E02846FEF73EFF00BF00BFE9
:1012D000D4E700000000002004000020FC120008F9
:1012E000000000204C0000004811000848130008CE
:1012F0004C0000202C0400005811000800000000E1
:1013000000000000000000000000000000000000DD
:1013100000000000000000000100000000000000CC
:10132000000000000102030401020304060708098B
:101330000204060800A24A040000000000000000A9
:0813400001020304060708097D
:0400000508000101ED
:00000001FF
